:100000000C9420030C9467030C9467030C9467030F
:100010000C9467030C9467030C9467030C946703B8
:100020000C9467030C9467030C94372A0C94092BE7
:100030000C94BC240C9467030C9467030C94670322
:100040000C9467030C9467030C9467030C94670388
:100050000C9467030C9415250C9467030C946703A8
:100060000C9467030C9467030C9467030C94670368
:100070000C9467030C9467030C9467030C94670358
:100080000C9467030C9467030C9467030C94670348
:100090000C9467030C9467030C9467030C94670338
:1000A0000C9467030C9467030C9467038B078B070E
:1000B000BD07BD070A0828080B090B0933089B0870
:1000C000AC08AC08AB09AB09BD09BD09B409BD0951
:1000D000BD09BD09AB09AB09B909BD09BD09B9091C
:1000E000731F761F961FA71FAF1FBA1FBD1FC01F0C
:1000F000C31F09200920C61FC91FCE1FDB1FE81F11
:10010000EB1FEF1FFC1F762B9D2B952C9D2B952C09
:10011000E92B0C2C952C632C722C07634236B79B71
:10012000D8A71A39685618AEBAAB558C1D3CB7CC57
:100130005763BD6DEDFD753EF6177231BF000000CF
:10014000803F05A84CCDB2D44EB93836A9020C5028
:10015000B9918688083CA6AAAA2ABE000000803F62
:1001600068747470733A2F2F716D6B2E666D2F0A41
:1001700000514D4B2069732074686520626573746B
:10018000207468696E672065766572210029001405
:10019000001A000800150017001C0018000C0012BF
:1001A0000013002A00E00004001600070009000AFE
:1001B000000B000D000E000F002D002A00E1001DB5
:1001C000001B00060019430542054211411000368C
:1001D00000370052002800E3000000E2002C002C51
:1001E0004128422C62500051004F00E500290014C4
:1001F000001A000800150017001C0018000C00125F
:100200000013002A00E00004001600070009000A9D
:10021000000B000D000E000F002D002A00E1001D54
:10022000001B00060019430542054211411000362B
:1002300000370052002800E3000000E2002C002CF0
:100240004128422C62500051004F00E50029001463
:10025000001A000800150017001C0018000C0012FE
:100260000013002A00E00004001600070009000A3D
:10027000000B000D000E000F002D002A00E1001DF4
:10028000001B0006001943054205421141100036CB
:1002900000370052002800E3000000E2002C002C90
:1002A0004128422C62500051004F00E50029001403
:1002B000001A000800150017001C0018000C00129E
:1002C0000013002A00E00004001600070009000ADD
:1002D000000B000D000E000F002D002A00E1001D94
:1002E000001B00060019430542054211411000366B
:1002F00000370052002800E3000000E2002C002C30
:100300004128422C62500051004F00E500000000DF
:1003100000000000002A2B28000000000000000060
:10032000000000000000000029000000002C1E3426
:1003300020212224342627252E362D3738271E1F2C
:10034000202122232425263333362E37381F040557
:10035000060708090A0B0C0D0E0F101112131415C5
:10036000161718191A1B1C1D2F3130232D350405A3
:10037000060708090A0B0C0D0E0F101112131415A5
:10038000161718191A1B1C1D2F3130354C00000090
:10039000000000000000000000000000000000005D
:1003A000000000000000000000000000000000004D
:1003B000007E0F00D4FFFFFFC70000007800047F1D
:1003C0003F1F643214643214783C1E1E140A05FF69
:1003D000AA7F554000010101010101010101020252
:1003E00002020202020202030303030303030304E3
:1003F00004040404040405050505050606060606AE
:10040000070707070708080808090909090A0A0A67
:100410000B0B0B0C0C0C0D0D0D0E0E0E0F0F0F1009
:100420001011111112121313141415151616171793
:10043000181819191A1A1B1B1C1D1D1E1E1F2020FF
:10044000212222232424252626272829292A2B2C49
:100450002D2D2E2F30313232333435363738393A6C
:100460003B3C3D3E3F404142434445464748494A64
:100470004C4D4E4F50515354555658595A5B5D5E32
:100480005F616264656668696B6C6D6F70727375CD
:1004900077787A7B7D7E8082838587888A8C8E8F31
:1004A00091939596989A9C9EA0A2A3A5A7A9ABAD5F
:1004B000AFB1B3B5B7BABCBEC0C2C4C6C9CBCDCF4D
:1004C000D1D4D6D8DBDDDFE2E4E7E9EBEEF0F3F5FB
:1004D000F8FAFDFF100363006F006F006C00380036
:1004E0003400370000000A036D002E006B00690025
:1004F00000000403090409025B00030100A0FA09DB
:100500000400000103010100092111010001224042
:10051000000705810308000A090401000203000026
:100520000009211101000122220007058203200099
:100530000107050303200001090402000103000074
:1005400000092111010001227B000705840320001E
:100550000A1201000200000008434D470801000193
:100560000200010660FF0961A1010962150026FF72
:10057000009520750881020963150026FF0095206B
:1005800075089102C005010902A10185020901A1B6
:100590000005091901290815002501950875018133
:1005A000020501093009311581257F950275088101
:1005B0000609381581257F950175088106050C0A05
:1005C00038021581257F950175088106C0C0050197
:1005D0000980A101850319012AB700150126B7007A
:1005E000950175108100C0050C0901A10185041950
:1005F000012AA002150126A002950175108100C0F4
:1006000005010906A101050719E029E715002501E3
:10061000950875018102950175088101050719008A
:1006200029FF150026FF00950675088100050819A9
:10063000012905950575019102950175039101C088
:1006400011241FBECFEFDAE0DEBFCDBF04B603FE3C
:1006500027C08091CA029091CB02A091CC02B091A8
:10066000CD028730904BA740B04BD1F41092CA0214
:100670001092CB021092CC021092CD0214BE84B71D
:10068000877F84BF0FB6F894A89580916000886139
:1006900080936000109260000FBEE0E0F8E30995DF
:1006A00011E0A0E0B1E0ECEFF1E602C005900D92A0
:1006B000AE3CB107D9F722E0AEECB1E001C01D922B
:1006C000AA3CB207E1F70E9432140C94FC300C945F
:1006D000000082362DE5920721F083369D4541F0DA
:1006E0000FC0FB018281882359F081E791E006C0A9
:1006F000FB018281882321F080E691E00E94B00511
:1007000081E0089581E008950C94690308950C94A4
:1007100086031F93CF93DF9300D000D01F92CDB7F5
:10072000DEB749835A836B833091D00189819A81E6
:10073000311114C0662359F0222349F00E94A10A06
:10074000182F682F89819A810E944A0A03C00E944B
:10075000750A182F69817A81812F04C00E94A10A2D
:1007600069817A810F900F900F900F900F90DF9119
:10077000CF911F910C94DB20FC01262F40815181E9
:100780006281738184810C94890381E00895CF9301
:10079000DF93EC0160E00E94BC03BE01DF91CF91CA
:1007A0000C948703E1E0F0E0DF0102C0AA0FBB1F59
:1007B0006A95E2F7BD01DF0102C0AA0FBB1F4A958F
:1007C000E2F7AD01462B01C0EE0F2A95EAF7942F10
:1007D0009823491302C08E2B0895E0958E23089527
:1007E000242F462F682F8091E3010E94D2030C949E
:1007F000070A0E94A6120E94BA050C94D9120C9402
:10080000D51208950E9499090E9401042FEF84E3F4
:100810009CE0215080409040E1F700C000000C9423
:100820003B250F931F93CF93DF938C0161E00E94D0
:10083000BC03EC01B8010E94CB1E882309F44BC015
:10084000B801CE010E948403882309F444C0B80192
:10085000CE010E9410228823F1F1B801CE010E943E
:1008600062228823C1F1B801CE010E948D23882322
:1008700091F1B801CE010E94771D882361F1F80142
:100880008281882309F1CA358DE5D807C1F050F47B
:10089000C115FCE5DF0781F0CE3DDC45A9F40E94DF
:1008A0009C0F19C0CB35EDE5DE0761F0CC35DD4599
:1008B00059F40E942E0E08C00E9402040CC00E942F
:1008C000370E02C00E943A0EC801DF91CF911F91EE
:1008D0000F910C94820380E0DF91CF911F910F91D3
:1008E0000895DF92EF92FF920F931F93CF93DF93C0
:1008F000E82FF0E0E35FFC4FD490282F2695269553
:10090000269530E0F901E355FC4F0491877010E023
:10091000082E02C0159507950A94E2F70170112779
:10092000F901E356FC4FE490F12C082E02C0F59437
:10093000E7940A94E2F791E0E922FF24F901E357F2
:10094000FC4FC491D0E002C0D595C7958A95E2F7D7
:10095000C170DD270115110519F081EE0E94140602
:10096000E114F10419F086EE0E9414068D2D0E9408
:100970003D07EF2819F086EE0E94BE06012B19F004
:1009800081EE0E94BE06CD2B51F08CE2DF91CF911B
:100990001F910F91FF90EF90DF900C943D07DF9136
:1009A000CF911F910F91FF90EF90DF900895EF92FC
:1009B000FF920F931F93CF93DF93EC01162F0AE062
:1009C0008881882309F455C0813009F043C08981AA
:1009D000813041F47E0182E0E80EF11C8A810E94A0
:1009E0003D0709C0823049F47E01E2E0EE0EF11CC1
:1009F0008A810E941406E7012FC0833041F47E01F2
:100A0000F2E0EF0EF11C8A810E94BE06F4CF843022
:100A100011F0219621C02A81229680E090E030E0FA
:100A2000205331092A30310558F4089FA001099F4D
:100A3000500D1124C901840F951F21962881EFCFF5
:100A4000009751F0EFE9FFE03197F1F700C00000A7
:100A50000197F6CF0E9471042196812F882309F413
:100A6000AFCFEFE9FFE03197F1F700C00000815010
:100A7000F5CFDF91CF911F910F91FF90EF900895E7
:100A800060E00C94D704EF92FF920F931F93CF93E3
:100A9000DF938C01F62E8AE0E82EF80184918823FA
:100AA00009F457C0813009F042C0E8012196FE01E7
:100AB0008491813031F42196FE0184910E943D079A
:100AC00039C0823039F4E8012296FE0184910E94F7
:100AD000140630C0833039F4E8012296FE01849177
:100AE0000E94BE0627C0843029F5E8012296FE0147
:100AF000249180E090E030E0205331092A30310524
:100B000060F4E89EA001E99E500D1124C901840FF4
:100B1000951F2196FE012491EECF009759F0EFE941
:100B2000FFE03197F1F700C000000197F6CF0E9477
:100B30007104E8018E010F5F1F4F8F2D882309F488
:100B4000ACCFEFE9FFE03197F1F700C00000815032
:100B5000F5CFDF91CF911F910F91FF90EF90089506
:100B600060E00C94430508950C94B30581E008956A
:100B70000C94B6050895CF93C82F0E94B4058C2F0E
:100B80000E94B805CF910895CF93DF93CDB7DEB71C
:100B90002B970FB6F894DEBF0FBECDBF4F8358879B
:100BA00069877A878B8761110E945D0E9E012F5F96
:100BB0003F4F86E0F90111928A95E9F785E0FE0141
:100BC0003796D90101900D928A95E1F789819A8132
:100BD0004C815D81452B31F09F3F31F491E08F3F97
:100BE00019F403C091E001C090E090FF09C0498171
:100BF0005A816B817C818D819E810E945D0D05C033
:100C0000C9010E94C5038111F2CF2B960FB6F8944B
:100C1000DEBF0FBECDBFDF91CF910895FC01808173
:100C200091810E94CE0A0895CF93882309F4A4C02D
:100C3000C82F8238C1F40E94C32381FD9DC069E39F
:100C400080910001909101010E9456240E94820E21
:100C50002FEF81EE94E0215080409040E1F700C0FA
:100C6000000069E319C0833801F50E94C32380FDA9
:100C700083C063E580910001909101010E94562498
:100C80000E94820E2FEF81EE94E021508040904030
:100C9000E1F700C0000063E580910001909101013F
:100CA0000E945824CF910C94820E8438C1F40E9483
:100CB000C32382FD61C067E480910001909101012E
:100CC0000E9456240E94820E2FEF81EE94E0215064
:100CD00080409040E1F700C0000067E4DDCF8CEF7A
:100CE0008C0F813AD0F46C2F80910001909101011A
:100CF0000E942024882349F06C2F8091000190915C
:100D000001010E9458240E94820E6C2F80910001E4
:100D1000909101010E945624C5CF80E28C0F88304B
:100D200048F4C77081E001C0880FCA95EAF70E94B5
:100D3000400EB8CFEBE5EC0FE33040F4F0E0EA5AB8
:100D4000FE4F808190E0CF910C94E823E8E5EC0F12
:100D5000E73150F4F0E0EE0FFF1FE85DFE4F8081B9
:100D60009181CF910C94FE23C03F30F08C2F0E94D4
:100D7000BF14CF910C949115CF910895882309F455
:100D800064C0823879F40E94C32381FF5EC069E3A6
:100D900080910001909101010E9456240E94820ED0
:100DA00069E310C08338B1F40E94C32380FF4DC0B3
:100DB00063E580910001909101010E9456240E94F8
:100DC000820E63E580910001909101010E945824F8
:100DD0000C94820E843879F40E94C32382FF35C0BC
:100DE00067E480910001909101010E9456240E94C5
:100DF000820E67E4E7CF9CEF980F913A10F4682FCA
:100E0000E1CF90E2980F983050F4877091E001C0E4
:100E1000990F8A95EAF7892F0E94460ED9CF9BE554
:100E2000980F933020F480E090E00C94E82398E54C
:100E3000980F973120F480E090E00C94FE23803FDF
:100E400020F00E941A150C94911508951F93CF93CA
:100E5000DF93182FEB010E941406209741F08FE9D1
:100E60009FE00197F1F700C000002197F6CF812F96
:100E7000DF91CF911F910C94BE06893319F060E089
:100E800070E002C060E570E00C942607882321F032
:100E90000E94400E0C94820E0895882321F00E9437
:100EA000460E0C94820E0895CF92DF92EF92FF923D
:100EB0000F931F93CF93DF937C01062FC72FFC0165
:100EC000D281158112951F700E94150E882399F00A
:100ED000DD2389F08C2F807F803421F080E2800F29
:100EE000883048F082E00E94D20E0E94150E91E0F8
:100EF000D82ED92601C0D12CCC2EC2948FE0C82286
:100F00008C2D90E08C30910508F085C1FC01EA5AE7
:100F1000FF4F0C945C308C2F807FCF70882311F0B2
:100F2000C295C07FDD2399F0CC2309F460C180E233
:100F3000800F883010F0011104C08C2F0E94400EE9
:100F400003C08C2F0E94500E0E94820E50C1802F31
:100F50000E94BE06CC2309F45EC180E2800F883077
:100F600010F0011104C08C2F0E94460E03C08C2F7C
:100F70000E94560E0E94820E4EC18C2F807FCF7031
:100F8000803211F0C295C07F002319F00130C9F002
:100F900022C0DD2371F0112341F0113031F40E94A1
:100FA000630E8C2B0E946B0E36C10E94630E8C2B3D
:100FB0001DC0112319F0113009F42DC10E94780EC3
:100FC00025C0DD2321F0163008F025C10EC01530F4
:100FD00008F021C11BC0DD2361F0112331F0F701BE
:100FE000858180FF04C18F7085838C2F0E94460706
:100FF00012C1112359F0093309F00AC1FFEF27EE9E
:1010000083E0F15020408040E1F700C18C2F0E9426
:101010004D0701C18C2F86958695837019F081301C
:1010200061F0F9C0DD2321F0802F9C2F937002C066
:1010300080E090E00E94E823F6C0DD2321F0802FBD
:101040009C2F937002C080E090E00E94FE23EBC0D2
:10105000802FDD2319F00E94BF1402C00E941A15D0
:101060000E949115E0C08C2F837079F5D111D7C003
:10107000402F429546954770440F440F202F2F7004
:10108000042E01C0220F0A94EAF704FF08C08FE083
:1010900090E001C0880F4A95EAF7809501C080E092
:1010A000C695C695C370822BC23049F058F4C13042
:1010B00019F00E94FB09B3C00E94F609B0C00E945B
:1010C000000AADC00E94F409AAC0DD2319F08C2FDC
:1010D000817001C08695882309F4A1C0402F4295F4
:1010E00046954770440F440F202F2F70042E01C0E7
:1010F000220F0A94EAF704FF08C08FE090E001C0D5
:10110000880F4A95EAF7809501C080E0C695C6959C
:10111000C370822BC23049F058F4C13019F00E94DC
:101120003F0A7DC00E943A0A7AC00E94440A77C0F2
:101130000E94070A74C0CF70DD2339F08C2F0E9403
:10114000180A802F0E9446076AC0802F0E944D0710
:101150008C2F0E94230A63C0023F01F128F4003F54
:1011600041F0013FA1F03FC0033FF9F0043F39F1E6
:101170003AC0DD2341F0153008F04DC08C2F8F713F
:101180000E942F0A48C0163008F045C0F7CFDD2373
:1011900039F08C2F8F710E94180A3DC0DD23C9F3EE
:1011A0008C2F8F710E94230A36C0DD2329F08C2FEB
:1011B0008F710E94100A2FC00E940D0A2CC0DD23DF
:1011C00049F0CF718C2F0E94180A63E08C2F0E9487
:1011D000B70E21C081E00E94D20E1230E0F082E012
:1011E0000E94D20E18C0DD2331F0112391F2802F1E
:1011F0000E94140610C0112399F2093349F49FEF9D
:10120000E7EEF3E09150E040F040E1F700C000006D
:10121000802F0E94BE0688EF8C0D843020F40E943F
:10122000C3230E94BB05DD20C9F00E94110E80FD82
:1012300015C0F70112820E940B0E0E94180AC70106
:101240000E944F090E940B0EDF91CF911F910F91C9
:10125000FF90EF90DF90CF900C94230ADF91CF9115
:101260001F910F91FF90EF90DF90CF9008950F9313
:101270001F93CF93DF93EC01688179818A810E946B
:10128000D90A8C010E94490A0E94E809B801CE01DE
:101290000E945407DF91CF911F910F910895CF9332
:1012A000DF93EC01988189812B813C81232B31F0E4
:1012B0008F3F31F481E09F3F19F403C081E001C00A
:1012C00080E080FD19C0CE010E94110481110CC084
:1012D0000E94150E882381F08A81882369F082E0BC
:1012E000DF91CF910C94D20ECE010E943709CE012E
:1012F000DF91CF910C94C703DF91CF91089580E0E7
:1013000090E00E94E82380E090E00E94FE230E948B
:101310005D0E0E94600E0E94820E0E94C2160C9406
:10132000911580910001909101010E945A240C9422
:101330007F090E944D0E0C949109E92FE295EF7000
:101340004E2F50E0FA013297EE30F105B0F4EE592D
:10135000FF4F0C945C30803F91F018F4883E68F4A5
:101360000EC0843F51F40BC0883E48F0813F29F401
:1013700006C093FB882780F9089580E0089581E0F6
:101380000895FC01808191810E94CE0A0E949D09EE
:101390000895CF93DF9300D000D01F92CDB7DEB772
:1013A0000F900F900F900F900F90DF91CF910895B5
:1013B000CF93DF9300D000D000D0CDB7DEB7269614
:1013C0000FB6F894DEBF0FBECDBFDF91CF91089569
:1013D000089508950C94E9090C94EA090E94EC0917
:1013E0008093E4010C947F090C94EE099091E40140
:1013F000892B0C94EE099091E40189230C94EE0959
:101400009091E40189270C94EE090C94E9090E945B
:10141000050A8093E3010C947F0980E00C94070A8D
:1014200091E001C0990F8A95EAF7892F0C94070A79
:1014300021E030E001C0220F8A95EAF78091E301B4
:10144000822B0C94070A21E030E001C0220F8A951C
:10145000EAF720958091E30182230C94070A21E0AA
:1014600030E001C0220F8A95EAF78091E3018227DC
:101470000C94070A9091E301892B0C94070A909130
:10148000E30189230C94070A9091E30189270C94C6
:10149000070A08952CE0929F800D1124E82FE6950D
:1014A000E695E695877051E001C0550F8A95EAF7F9
:1014B00083E0E89FF0011124EF52FE4F20E030E07E
:1014C00070E04081CB01022E02C0969587950A9468
:1014D000E2F78170819584278523842781932F5F8C
:1014E0003F4F2330310569F708952CE0929F800D1E
:1014F0001124682F669566956695982F977083E0FE
:10150000689FB001112440E050E080E0FB01E40F4F
:10151000F51FEF52FE4F208130E0092E02C03695B4
:1015200027950A94E2F721703327042E01C0220F79
:101530000A94EAF7822B4F5F5F4F4330510531F732
:101540000895CF92DF92FF920F931F93CF93DF9373
:101550006C010091E3018091E401082BC7E0D0E029
:1015600010E0C8010C2E02C0959587950A94E2F709
:1015700080FD04C02197A8F7F12C07C0FC2EB6010E
:101580008C2F0E94B0110197A9F38F2DDF91CF917D
:101590001F910F91FF90DF90CF900895CF93DF932D
:1015A000EC010E94A10ABE010E94B011DF91CF910F
:1015B00008951F93CF93DF93EB019091D00199236E
:1015C00021F0CB010E94CE0A13C0882349F0CB0141
:1015D0000E94A10A182F682FCE010E944A0A04C057
:1015E000CB010E94750A182FBE01812F0E94B011F5
:1015F000DF91CF911F9108951F93CF93DF93C091F7
:10160000E50116E08091E601C81799F0D0E01C9F33
:10161000F0011D9FF00D1124E951FE4F40815181D1
:1016200062817381848195810E94D8092196C77057
:10163000E9CFDF91CF911F9108954091170250910A
:1016400018026091190270911A0280911B02909108
:101650001C020C94D8090F931F93CF93DF938091B2
:101660001C0282958F7009F05DC080911902882359
:1016700009F458C08091E5011091E60160911702CC
:1016800070911802C0911A02D0911B0291E06F3F35
:1016900009F090E0292F06E0811709F443C0209754
:1016A00021F07F3F21F030E003C031E001C0322F54
:1016B00090E030FD34C0089FF001099FF00D112427
:1016C000DF01A951BE4F11963C911197371327C0E6
:1016D0003C91361324C012963C91129731111FC0D1
:1016E00013964D915C9114974C1B5D0B483C510532
:1016F000B0F480911C028F70806180931C02E451D1
:10170000FE4F80818F708061808387E192E00E942C
:101710004F09DF91CF911F910F910C94FC0A019614
:101720008770BACFDF91CF911F910F9108959F924B
:10173000AF92BF92CF92DF92EF92FF920F931F93DF
:10174000CF93DF93CDB7DEB761970FB6F894DEBFC6
:101750000FBECDBF8C0185E0F801DE011D96019022
:101760000D928A95E1F7F801E2809091170260915D
:10177000180220911A0230911B022115310531F017
:101780006F3F31F481E09F3F19F403C081E001C055
:1017900080E0F82FF1709F2E80FD3FC1F80140815D
:1017A0005181A380B48087E1C82E82E0D82EF090CA
:1017B0001902F501E21BF30BFF2009F4D9C0809157
:1017C0001C02E83CF10508F095C0282F207F09F0A5
:1017D00052C0561313C0491311C0FE2CE1100EC0A5
:1017E0008F70806180931C020E941D0BC6010E94B5
:1017F0004F0980911C02F80185834CC1AB2831F060
:101800005F3F31F481E04F3F19F403C081E001C034
:1018100080E080FD03C081E08E2502C080E090E082
:10182000F82FF170FF2E80FF1CC08091E501209100
:10183000E60136E0821709F40BC190E0389FF00111
:10184000399FF00D1124E951FE4F6181561306C0F6
:101850006081461303C06281E61203C0019687705F
:10186000E9CFFE2CEE2009F415C180911C028160A5
:1018700080931C0254C0561306C0491304C0E110E3
:1018800002C0F80199C0C8010E94C109882361F112
:10189000EE2051F120911C02822F82958F7090E0F2
:1018A000029774F0809117029091180298878F83A5
:1018B0001986BB86AA862C87CE0107960E944F09FF
:1018C00086E0F801A7E1B2E001900D928A95E1F778
:1018D0000E942B0B0E941D0B0AC0561711F1C80164
:1018E0000E94C10981112CC0C8010E944F09FF2428
:1018F000F394D0C0282F207F81F77A2DB98AA88A47
:101900006E2D89890E94C90987E192E00E944F09E2
:1019100086E0F60111928A95E9F70E941D0BF12CE1
:10192000B9C04913DCCFE110DACFF8018583C801D3
:101930000E944F0986E0F60111928A95E9F7AAC044
:10194000EE2091F220911C02822F82958F7090E000
:1019500002970CF4B5CF80911702909118029A83E8
:1019600089831B82BD82AC822E83CE010196A6CFD5
:10197000E83CF10508F044C0FE2CEE2009F4B4CF99
:10198000561330C049132EC020911C0220FD21C0E7
:10199000822F82958F70482F50E041155105C9F074
:1019A000F80125834F30510541F08F5F982F9295B4
:1019B000907F822F8F70892B8583C8010E944F09E9
:1019C00086E0F801A7E1B2E001900D928A95E1F777
:1019D0003CC086E0F801A7E1B2E001900D928A9543
:1019E000E1F758C0C8010E94C109811169CF8091F7
:1019F0001C02816080931C02C8010E944F094AC0EA
:101A00007A2DB98AA88A6E2D89890E94C90986E033
:101A1000F60111928A95E9F718C0EE2009F464CF17
:101A2000C8010E94C109F82E882309F45DCF86E021
:101A3000F801A7E1B2E001900D928A95E1F787E104
:101A400092E00E940E060E942B0B0E941D0B22C0EA
:101A50004D875E878D859E850E94CE0A292F22950F
:101A60002F70223028F49F7039F0811105C00BC00F
:101A7000243028F49F7049F4805E883020F0C8013B
:101A80000E944F099F2CF92C05C0F8019581907F89
:101A900099F7F9CF8F2D61960FB6F894DEBF0FBE80
:101AA000CDBFDF91CF911F910F91FF90EF90DF900D
:101AB000CF90BF90AF909F9008951F93CF93DF93E7
:101AC000CDB7DEB72C970FB6F894DEBF0FBECDBFF3
:101AD0004F83588769877A878B879C87CE010796C3
:101AE0000E94970B8823D1F09F8188852A853B85AA
:101AF000232B31F08F3F31F481E09F3F19F403C075
:101B000081E001C080E080FD47C04F815885698534
:101B10007A858B859C850E94D8093EC086E0FE01AF
:101B20003796DE01119601900D928A95E1F7FF81BB
:101B3000E8856A857B856115710531F0EF3F31F4E9
:101B400081E0FF3F19F403C081E001C080E080FD27
:101B500023C02091E60130E0C901019687709927E2
:101B60004091E50150E084179507F1F1F983EA838C
:101B70007D836C8396E0929FD001939FB00D1124DA
:101B8000A951BE4FFE01319601900D929A95E1F751
:101B90008093E6010E94FC0A16E08091E501909195
:101BA000E601891771F1189FC001112489519E4FD8
:101BB0000E94970B882329F1E091E5011E9FF00117
:101BC0001124E951FE4F40815181628173818481EA
:101BD00095810E94D8098091E50190E00196877077
:101BE00099278093E501D9CF0E9499091092E601C7
:101BF0001092E501E7E1F2E086E0DF011D928A95AF
:101C0000E9F72C960FB6F894DEBF0FBECDBFDF917B
:101C1000CF911F91089580911D0285958595859599
:101C2000089580911D028770089590911D0297700C
:101C300081E009F480E008959091730292FB2227DD
:101C400020F9281751F080FB92F99093730280914C
:101C50007202909173020C94190F0895809173028F
:101C600082FB882780F991E089270C941C0E81E083
:101C70000C941C0E80E00C941C0E80912902089597
:101C800090912902892B8093290208958095909143
:101C90002902892380932902089510922902089528
:101CA00090912802892B8093280208958095909125
:101CB000280289238093280208951092280208950B
:101CC00010922702089580911E02089508950C94A1
:101CD000660E0C94670E9091730292FD08C090916D
:101CE0001E02981721F080931E020C94690E08952D
:101CF00080911E02882329F010921E0280E00C942D
:101D0000690E0895E0910001F0910101809129028E
:101D10008083E0910001F09101019081809128027F
:101D2000892B8083E0910001F091010190818091E5
:101D30002702892B808380911E02882381F0E09105
:101D40000001F09101019081892B80838091000135
:101D5000909101010E94142481110E94780E8091BB
:101D60000001909101010C94CF230C94660E909188
:101D7000730292FD10C098E0899F90011124262BD8
:101D800020931D020E94180A80911D028595859559
:101D900085950C94B50E0C94180A10921D0280E0E3
:101DA0000C94B50E20911D028095822380931D0214
:101DB000982F977041F430E0482F082E000C550BF7
:101DC0002417350721F49091730292FF07C085957F
:101DD000859585950E94230A0C94CD0E08956FEF8A
:101DE0007FEF80E090E00C94E63080E090E00E948D
:101DF000C230893E9E4F11F40C946E1E80E008950F
:101E000082E090E00C94B43083E090E00C94B43025
:101E1000CF9384E090E00E94B430C82F82E290E03B
:101E20000E94B4302C2F30E0A901582BCA01CF9169
:101E30000895CF93C92F682F84E090E00E94C830A6
:101E40006C2F82E290E0CF910C94C830AB01BC01C2
:101E50008FE090E00C94DA30AB01BC0183E190E0BC
:101E60000C94DA3060E070E0CB010C942C0F60E051
:101E700070E0CB010E94260F0C94320F69EE7EEFCA
:101E800080E090E00E94E63060E082E090E00E9416
:101E9000C83060E083E090E00E94C8301092E40116
:101EA00060E084E090E00E94C83060E082E290E070
:101EB0000E94C83060E085E090E00E94C83060E099
:101EC00086E090E00E94C8306FEF87E090E00E94CB
:101ED000C83040E050E0BA0188E090E00E94DA307B
:101EE00060E08DE090E00E94C83040E050E0BA0130
:101EF00088E190E00E94DA3060E087E190E00E94A3
:101F0000C83040E050E0BA018CE190E00E94DA3045
:101F100060E070E080E290E00E94E63040E050E057
:101F2000BA0188E190E00E94DA3080E00E94871ECA
:101F30000E94B31E0C94370F0C943E0F682F8EE056
:101F400090E00C94C8300E94FA246093370270939A
:101F500038028093390290933A026093330270936F
:101F600034028093350290933602089585B78068D5
:101F700085BF85B7806885BF089581E008950C947A
:101F8000BD0F08950C94C10F0C94C10F0C94C40F95
:101F90000C94C10F0C94C80F0C94C10F0E94B60F83
:101FA0008CE892E10E945F250E94CC0F0C94CA0F2E
:101FB0000E94C20F0C94C10F0E94E5240E94C21E11
:101FC0000E948A130E94851C0C94C60F6F927F9208
:101FD0008F929F92AF92BF92CF92DF92EF92FF9239
:101FE0000F931F93CF93DF93CDB7DEB72A970FB62A
:101FF000F894DEBF0FBECDBF0E94AC1381110E94CA
:10200000A30F3BE2832E32E0932E00E010E0C02EBF
:10201000802F0E94C0125C01F401619071904F0109
:102020006826792661147104B1F40F5F1F4F0430E4
:10203000110569F78FEF89838A831B820E94EE2442
:102040008160782F9D838C8349815A816B818D813A
:102050000E94C4053AC080913B0281FD0E94C912D2
:10206000D12CEE24E394F12CC3018E219F21892BE6
:1020700029F10E94BF0F8823A9F0DE82CF82AE2013
:10208000BF2081E0AB2809F480E088870E94EE241D
:102090008160782F9A8789874E815F8168858A85DC
:1020A0000E94C405000F111FF801E55DFD4F8081FE
:1020B0009181E826F926F182E08207C0D394EE0CE4
:1020C000FF1CFCE0DF12D0CFB0CF0E94C91C0E94E1
:1020D000AF150E94C32390912A028917D1F00E9464
:1020E000C32380932A022A960FB6F894DEBF0FBE50
:1020F000CDBFDF91CF911F910F91FF90EF90DF90B7
:10210000CF90BF90AF909F908F907F906F900C94E6
:10211000BB052A960FB6F894DEBF0FBECDBFDF9188
:10212000CF911F910F91FF90EF90DF90CF90BF90D4
:10213000AF909F908F907F906F900895CF93DF9393
:102140000E94B511EC01811521E5920708F045C008
:10215000811530E5930708F094C0883E910528F575
:10216000803E910508F0F8C0883A910570F4853AF0
:10217000910508F07CC08130910509F475C008F420
:10218000E8C0049708F0E8C0E4C08F3B910508F070
:10219000E0C0C85AD0E0CC0FDD1FC75ADE4F09900F
:1021A000D881C02DCE019464D8C0811540E2940737
:1021B00058F4811551E0950708F0CEC0803F910595
:1021C00008F4C7C09065C9C0C11580E4D80708F4F9
:1021D000C0C0DF70CE01906AC0C0811525E59207AE
:1021E000A8F4811534E5930708F095C0811543E5FF
:1021F000940708F07BC0811552E5950708F061C08F
:10220000D82FCC27CE01816F906AA7C0C11589E570
:10221000D807A0F4C11528E5D20708F082C0C1157F
:1022200036E5D30708F095C08C2F0E9449128F71B4
:1022300090E0D82FCC27CE0190628FC0C1154AE51F
:10224000D40708F474C0CE0190568115904208F06E
:1022500080C08D2F8F710E944912DD27D0628F714F
:10226000AE01582BCA0179C081E090E076C0C55A12
:10227000D0E0C957DE4F8881C82FD0E0CE019064EE
:102280006CC074E0969587957A95E1F7282F2370B6
:102290003C2F337081E090E002C0880F991F3A957F
:1022A000E2F79C68AC01522B9A019C2F9F70969587
:1022B000969550E2959FE0011124C9018C2B9D2B2E
:1022C0004CC08370992721E030E002C0220F331FF9
:1022D0008A95E2F79C2F9695969580E2989FE0016B
:1022E0001124C22BD32BCE019C6837C08370992751
:1022F00021E030E002C0220F331F8A95E2F79C2FC5
:102300009695969540E2949FE0011124C22BD32B21
:10231000CE019A6822C0D82FCC27CE01846F906A54
:102320001CC0DC2FCC27CE01806F906A16C08C2F8A
:102330008F700E94491294E0D695C7959A95E1F75F
:10234000CF70D0E0DC2FCC27D0699E01282BC901AB
:1023500004C080E090E001C0CE01DF91CF910895EC
:102360000E94DB200E949E1008958238910569F139
:10237000B0F48133910509F46DC048F489329105B8
:1023800009F463C08A32910509F469C00895853360
:10239000910509F455C089339105B9F00895833E3C
:1023A000910569F138F4803E9105B1F0823E9105C6
:1023B00009F10895863E9105A9F1873E9105B9F18D
:1023C000843E910509F064C023C02091720220FD73
:1023D0004FC021FD4DC008958091720280FD44C020
:1023E0008091730280FF44C08091720284FD42C0DC
:1023F00083EE4DC08091720282FF38C0F5CF80918C
:10240000720282FD33C08091730280FD31C0ECCF37
:102410008091730281FF32C08091720284FD2AC0D4
:1024200087EE35C08091720283FF26C0F5CF809180
:10243000720283FD21C08091730281FD1FC0ECCF29
:102440008091720285FD1CC01DC08091720285FDC5
:1024500019C016C08091720286FD16C017C0809107
:10246000720286FD13C010C089E311C082EE0FC056
:1024700080EE0DC080E00BC086EE09C084EE07C080
:1024800089E205C085E303C08AE201C081E390E0F0
:1024900008959091720292FF0DC0282F2871283064
:1024A00019F4877F846006C0282F2471243011F42A
:1024B0008B7F886093FF0DC0282F2871283119F475
:1024C000877E846106C0282F2471243111F48B7E0D
:1024D00088612091730220FF0DC0382F3871383089
:1024E00019F4877F816006C0382F3171313011F4C3
:1024F0008E7F886021FF0DC0282F2871283119F4A4
:10250000877E816106C0282F2171213111F48E7ED2
:10251000886194FD877E089580E008950C94EF0E05
:102520000E94AC138FE39CE90197F1F700C0000013
:102530000E94AC1380E00E94C01280FF04C00E9481
:102540008E120C943B2508950C9490120E94F50E67
:10255000811102C00E949C0F0E94000F80933B02D9
:102560000E94080F90937302809372020E94A4123B
:102570000E94040F0E94F4098091E3010C94050A63
:10258000E82FF0E0EE0FFF1FE458FD4F80819181AE
:102590000895089580EA8A95F1F7089500C0089596
:1025A0000C94CA1208950C94D2120C94D3120C9469
:1025B000D2120C94D712F894E82FE295EF70F0E065
:1025C00031A1282F2F7081E090E001C0880F2A955B
:1025D000EAF7982F9095932391A392A1892B82A338
:1025E000789408950F931F93CF93DF93C6E9D1E0BA
:1025F00089918F3F11F00E94DB1281E0CA39D80720
:10260000B9F7CAE8D1E006E911E089918F3F11F0EE
:102610000E94DB120C171D07C1F7DF91CF911F91AC
:102620000F910895AF92BF92CF92DF92EF92FF92F7
:102630000F931F93CF93DF938C01C62FD0E0CE0171
:102640008A569E4F6C01DC019C919F3F09F457C054
:10265000B62EF894E92FE295EF70F0E081A19F701B
:1026600021E030E001C0220F9A95EAF7822B81A386
:1026700082A12095282322A378940E94CE12EAE812
:10268000F1E020E030E0E12CF12C41E050E08191DC
:102690008F3FC1F0A82FA295AF70B0E090966C91DB
:1026A00070E08F70DB0102C0B595A7958A95E2F7BF
:1026B000A0FD08C0CA01022E02C0880F991F0A940B
:1026C000E2F702C080E090E0E82AF92A2F5F3F4F4E
:1026D0002C303105E1F6F60180818F3F11F00E9428
:1026E000DB1261E0E114F10409F460E08B2D0E943B
:1026F000D012CC0FDD1FC00FD11FF982E882DF910D
:10270000CF911F910F91FF90EF90DF90CF90BF90EE
:10271000AF9008950E94F212A4E7B2E011961C92C5
:102720001E92ECE7F2E01182108213961C921E9228
:1027300012971382128215961C921E92149715827C
:10274000148217961C921E9216971782168284E0A6
:102750000E94F7130C94F903FF920F931F93CF93EA
:10276000DF93CDB7DEB728970FB6F894DEBF0FBE64
:10277000CDBF8E010F5F1F4F88E0F80111928A953F
:10278000E9F7F12C6F2DC8010E941213F394F4E0C5
:10279000FF12F8CF48E050E0B80184E792E00E94D1
:1027A000A730FF24F394009709F4F12C892B41F012
:1027B00088E0F801A4E7B2E001900D928A95E1F774
:1027C0002F2D44E06CE772E084E792E00E94F8135A
:1027D0000E94FF038F2D28960FB6F894DEBF0FBE20
:1027E000CDBFDF91CF911F910F91FF900895089574
:1027F000FF920F931F93CF93DF93F82E092F162F7D
:10280000D72FC42F222349F081E080933E020E94FB
:10281000EE2490933D0280933C0280913E028823F7
:10282000D9F080913C0290913D020E9406250597C7
:1028300098F0EF2DF02FA12FBD2F80E090E04C2FCE
:1028400050E08417950734F4219131912D933D93F5
:102850000196F7CF10923E02DF91CF911F910F9119
:10286000FF9008950E9461240E94F3260E940C2785
:102870000E941E270E94D80FFBCF8091450280FF47
:102880000BC06091070185E0689FB0011124759528
:102890006795759567952BC081FF09C06091070109
:1028A00085E0689FB00111247595679520C082FF6F
:1028B00007C06091070185E0689FB001112417C02F
:1028C000909144029923D1F060910601961788F700
:1028D0002091070185E0289F90011124929FA0017B
:1028E000939F500D112470E0CA010E942630603879
:1028F000710540F46115710519F406C065E070E0DA
:10290000862F08958FE7089581E00895809145020C
:1029100080FF08C06091030170E07595679575951B
:10292000679521C081FF06C06091030170E0759535
:10293000679519C082FF04C06091030170E010C068
:1029400090914302992399F0609102019617A0F7A4
:1029500080910301899FC001112470E00E942630FC
:102960006038710540F46115710519F406C061E025
:1029700070E0862F08958FE7089581E00895803FE5
:1029800021F40E943D14819504C0813F29F40E94E6
:102990003D14809349020895823F21F40E943D1422
:1029A000819504C0833F29F40E943D14809348021E
:1029B0000895893F19F40E94861405C08A3F31F4B6
:1029C0000E948614819580934A0208958B3F21F4DA
:1029D0000E948614819504C08C3F29F40E948614BD
:1029E00080934B0208959CE0980F953078F421E095
:1029F00030E0A90102C0440F551F9A95E2F7CA01C1
:102A000090914702892B8093470208958D3F21F4CE
:102A10008091450281600BC08E3F21F48091450278
:102A2000826005C08F3F29F48091450284608093C5
:102A300045020895803F39F49091490297FF35C0CF
:102A40001092490259C0813F29F490914902191608
:102A5000BCF32BC090914802823F29F497FF25C018
:102A60001092480249C0833F19F41916CCF31DC0D7
:102A700090914A02893F29F41916BCF410924A0237
:102A80003BC08A3F19F497FF10C0F8CF8B3F39F451
:102A900090914B0297FF09C010924B022DC08C3FC2
:102AA00021F490914B021916BCF39CE0980F9530DD
:102AB00080F421E030E0A90102C0440F551F9A952F
:102AC000E2F7CA01809590914702892380934702DB
:102AD00013C08D3F21F4809145028E7F0BC08E3F45
:102AE00021F4809145028D7F05C08F3F29F48091AC
:102AF00045028B7F8093450280914802811106C078
:102B000080914902811102C01092440280914A02D0
:102B1000811106C080914B02811102C010924302C4
:102B200008950E94EE2420914802211104C02091B2
:102B30004902222321F09093420280934102209186
:102B40004A02211104C020914B02222321F09093CC
:102B5000400280933F0286E492E00C94DA23EF92E5
:102B6000FF920F931F93CF93DF9300D000D000D03C
:102B7000CDB7DEB786E0E6E4F2E0DE011196019023
:102B80000D928A95E1F7E0904802F0904902009199
:102B90004A0210914B021092480210924902109280
:102BA0004A0210924B02E11003C0FF2009F45DC0FD
:102BB00080914102909142020E940625AC019091C1
:102BC0004402992339F02091080130E02417350799
:102BD00058F04BC0209109018AE0289F90011124F0
:102BE0002417350718F041C09F3F19F09F5F90935D
:102BF0004402EE2061F00E943D141E1414F09FEF79
:102C000001C091E0989F902D112490934802FF20DD
:102C100061F00E943D141F1414F09FEF01C091E079
:102C2000989F902D112490934902309148023323AC
:102C3000E1F0209149022223C1F045EB3403C001A9
:102C40001124992319F09093480203C081E08093E6
:102C5000480235EB2303C0011124992319F0909306
:102C6000490203C081E080934902011103C011238E
:102C700009F45DC080913F02909140020E940625B8
:102C8000AC0190914302992339F02091040130E086
:102C90002417350758F04BC0209105018AE0289F82
:102CA000900111242417350718F041C09F3F19F0F7
:102CB0009F5F90934302002361F00E9486141016D8
:102CC00014F09FEF01C091E0989F902D11249093F4
:102CD0004A02112361F00E948614111614F09FEF2E
:102CE00001C091E0989F902D112490934B02309158
:102CF0004A023323E1F020914B022223C1F045EB3D
:102D00003403C0011124992319F090934A0203C09F
:102D100081E080934A0235EB2303C00111249923FB
:102D200019F090934B0203C081E080934B02809195
:102D3000480281110BC080914902811107C0809126
:102D40004A02811103C080914B0281110E949115AA
:102D5000EB82FC820D831E8386E0FE013196A6E4A1
:102D6000B2E001900D928A95E1F726960FB6F8949D
:102D7000DEBF0FBECDBFDF91CF911F910F91FF90AE
:102D8000EF900895E6E4F2E086E0DF011D928A9577
:102D9000E9F71092440210924302109245020895FE
:102DA000EF92FF920F931F93CF93DF938B01682FC6
:102DB00011110AC0442329F0E82FF0E0EC52FC4F37
:102DC0006491762F862F75C0212F30E0E82FF0E038
:102DD000442321F0EC52FC4FE491F0E046E0049FE4
:102DE000C0011124CFEFD0E0BE010E9412304BEAA7
:102DF0004603C001479F900D1124800F911D800F45
:102E0000911D982F990F890FAE01421B530B4E9FB6
:102E1000D0014F9FB00D5E9FB00D11249B2F189FC6
:102E2000A0011124452F55278E01041B150B0E9F61
:102E3000A0010F9F500D1E9F500D11247E01E81A16
:102E4000F108E29E8001E39E100DF29E100D112408
:102E5000212F3327C21BD30BCE9F9001CF9F300D64
:102E6000DE9F300D112462307105A9F048F4611520
:102E7000710569F061307105C9F48B2F752F0DC094
:102E80006430710581F058F06630710579F47E2F59
:102E90008B2F932F0DC0832F7B2F9E2F09C08E2F3A
:102EA0007B2F952F05C08E2F732F02C07E2F852F6D
:102EB000692FDF91CF911F910F91FF90EF900895AF
:102EC00041E00E94D016089508950E946017089569
:102ED000CF93DF93762FE901682F842F0E94651727
:102EE000798368838A83DF91CF91089580918402EA
:102EF000282F269530E02115310519F48170826064
:102F000005C02532310524F08170886480938402E5
:102F1000089588E090E00C94BC30CF92DF92EF925D
:102F2000FF926B017C010E947617B701A60188E031
:102F300090E0FF90EF90DF90CF900C94DA306091AA
:102F400084027091850280918602909187020C9490
:102F50008D17E4E8F2E083E0808311828FEF8283B3
:102F60008383148260817181828193810C948D1797
:102F70008091840280FF02C08695089580E00895C4
:102F800090918802933018F49F5F90938802882371
:102F900051F0609184027091850280918602909137
:102FA00087020C948D17089581E00C94C0179091BE
:102FB0008802992319F0915090938802882351F048
:102FC00060918402709185028091860290918702BF
:102FD0000C948D17089581E00C94D7178091880286
:102FE000089580938802662351F060918402709165
:102FF000850280918602909187020C948D17089526
:1030000060E00C94F117809185020895809186020A
:10301000089580918702089570E00C94431E60919A
:103020000E018091840280FF0AC080910D0123E08F
:10303000829FC001112487579D4F0C940C188091DA
:103040000F0190911001891780F7E82FF0E09F01A0
:10305000220F331FE20FF31FE757FD4F118210823B
:1030600012828F5FF0CF9091840290FF16C09091F2
:103070000F0120911001921770F4E92FF0E0DF01A9
:10308000AA0FBB1FEA0FFB1FE757FD4F8183608329
:1030900042839F5FF0CF0C940F180895CF93DF9376
:1030A00000D01F92CDB7DEB79091840290FF0AC086
:1030B0009E012F5F3F4F0E9468174B8169818A8173
:1030C0000E9433180F900F900F90DF91CF910895C9
:1030D000CF93DF93EC016C8170E080E090E00E9480
:1030E000132E20E030E04FE753E40E94362D2BED05
:1030F0003FE049E450E40E943C2F0E94A92F0E9427
:10310000B02D2BE43AE34EE25FE30E94C92C20EF9E
:103110003BEF48ED52E40E943C2F0E94E22D462FE7
:10312000E4E8F2E0628181810E944E188C818F5F19
:103130008C83DF91CF910895CF93DF93EC01E4E886
:10314000F2E0438162818C810E944E188C818F5FF6
:103150008C83DF91CF9108950F931F93CF93DF93CB
:1031600000D01F92CDB7DEB78C0180914C02811147
:103170000AC09E012F5F3F4F4FEF6FEF0E9468170D
:103180008A8180934C02F8018481813051F028F0CB
:10319000823061F440914C020AC080914C0240E0C0
:1031A00007C060914C0240E080E003C040E080E056
:1031B00060E00E943318F801848190E0019663E09A
:1031C00070E00E94263084830F900F900F90DF9163
:1031D000CF911F910F910895AF92BF92CF92DF923E
:1031E000EF92FF920F931F93CF93DF9300D01F9224
:1031F000CDB7DEB7182FF62E042FE22E9091840261
:1032000090FF6DC0E92FE695AE2FB0E0A656BE4FF9
:103210008C91809358029E7F923061F49E012F5FC3
:103220003F4F812F0E9468174B8169818A810E94DC
:10323000331843C0823019F4009187023EC08630B3
:1032400019F41091850239C08930D9F38931A9F573
:10325000E9518E2F8170D82EE695F0E0E153FC4FB6
:10326000A590B490C12CBB2460911101C61618F52D
:103270002C2D30E0A29EC001A39E900DB29E900D19
:10328000112470E00E941230812FD11002C0860FED
:1032900001C0861B90910F01290F311DA901440F18
:1032A000551F240F351F27573D4F402F6F2D0E946C
:1032B0006817C394D9CF0E940F1810938502F0921B
:1032C000860200938702EE2051F060918402709193
:1032D000850280918602909187020E948D170F903F
:1032E0000F900F90DF91CF911F910F91FF90EF9072
:1032F000DF90CF90BF90AF900895E4E8F2E0918125
:10330000282F4381628180E1890F0C94EC1881E0C1
:103310000C947D19E4E8F2E09181282F43816281C9
:1033200080EF890F0C94EC1881E00C948A19E4E882
:10333000F2E0628120E1620F08F46FEF282F4381F1
:1033400081810C94EC1881E00C949719E4E8F2E088
:10335000628120E1621B08F460E0282F43818181B3
:103360000C94EC1881E00C94A619E4E8F2E0438197
:1033700020E1420F08F44FEF282F628181810C94E5
:10338000EC1881E00C94B519E4E8F2E0438120E107
:10339000421B08F440E0282F628181810C94EC18D4
:1033A00081E00C94C41920E00C94EC18FF920F9368
:1033B0001F93CF93DF93EC01F12C0FEF10E060919E
:1033C0001101F616F0F480910F012F2D30E0280F37
:1033D000311DC901880F991F280F391F27573D4FED
:1033E00070E0C8010E942630962F8C8140918702A0
:1033F00060918602F99E800D11240E946817F39453
:10340000DECF0E940F189A818C8190FF02C08F5FDF
:1034100001C081508C83DF91CF911F910F91FF905C
:103420000895BF92CF92DF92EF92FF920F931F9376
:10343000CF93DF93FC01828180FF02C00FEF01C0B8
:1034400001E010E080911101181708F040C0809150
:103450000F01C12ED12CE601C80FD11DCE01880F5E
:10346000991FC80FD91FC757DD4F198218821A82BA
:1034700034E0E32EF12CB12C80914E028B0D813182
:1034800014F08F7005C087FF03C090911101890F60
:10349000082E000C990BC816D90691F4809187026A
:1034A0008E9DA0018F9D500D1124559547955595E2
:1034B00047959E0160918602809185020E9468175F
:1034C000B00EF1E0EF1AF108B9F61F5FBBCF0E9412
:1034D0000F1880914E02013031F4811102C08091A9
:1034E0001101815007C090E001966091110170E0D8
:1034F0000E94263080934E02DF91CF911F910F9151
:10350000FF90EF90DF90CF90BF900895CF93809180
:103510000F0190911001891770F4E82FF0E09F01DE
:10352000220F331FE20FF31FE757FD4F1182108266
:1035300012828F5FF0CFC0E060911101C617C0F515
:10354000EC2FF0E070E0CF010E94263020910F01B7
:10355000820F20914D02022E000C330B90E0E217F7
:10356000F307CCF020910C01022E000C330B2E1728
:103570003F078CF09C01220F331F820F931F9C0189
:1035800027573D4F409187026091860280918502C6
:103590000E9468170BC0FC01EE0FFF1F8E0F9F1FCC
:1035A000FC01E757FD4F118210821282CF5FC4CF1A
:1035B0000E940F1820910B0180914D02820F809381
:1035C0004D0290910C01920F90930C0119165CF42E
:1035D000082E000C990B4091110150E04150510907
:1035E000841795071CF0219520930B01CF91089526
:1035F0008F929F92AF92BF92CF92DF92EF92FF9203
:103600000F931F93CF93DF938C01FC014481C42F50
:10361000D0E09E01DE010E9471309B01AC010E944E
:1036200087306B017C01E0E2F0E0EC1BFD0BA5E5CF
:10363000B0E09B01AC010E9487304B015C019F010F
:10364000DF010E9469309B01AC010E9492309B0116
:10365000AC012C0D3D1D4E1D5F1DC501B4010E9426
:103660003A30C22FD22F2A3228F4F3E02F9F900154
:1036700011240DC025E530E02C1B3109C901880F4C
:10368000991F280F391F37FF02C02F5F3F4F359515
:103690002795C22FC095F12C85E5E82EED1A809173
:1036A0001101F816C8F4F1FC02C08E2D01C08D2F57
:1036B00090910F012F2D30E0290F311DA901440FEA
:1036C000551F240F351F27573D4F4C2F6091860201
:1036D0000E946817F394E3CF0E940F18F8018481C9
:1036E000811102C091E003C0803219F49FEF9093E2
:1036F0000A0190910A01890FF8018483DF91CF912B
:103700001F910F91FF90EF90DF90CF90BF90AF90FF
:103710009F908F9008950F931F93CF93DF93EC01A9
:1037200000E010E080911101282F30E0021713070C
:1037300024F590910F019801290F311DA901440F23
:10374000551F240F351F27573D4F869590E04C811C
:10375000081719071CF4442331F002C0411103C0BB
:103760004091870201C040E060918602809185020D
:103770000E9468170F5F1F4FD5CF0E940F188C81D2
:1037800090E00196817099278C83DF91CF911F91F2
:103790000F910895E4E8F2E080818E7F808360815C
:1037A0007181828193810E948D17109259022FEFAF
:1037B00080E792E0215080409040E1F700C0000097
:1037C0000C940F18E4E8F2E080818E7F80831092E1
:1037D00059022FEF80E792E0215080409040E1F7BE
:1037E00000C000000C940F181092590280915602EC
:1037F00081110AC081E08093560280918402817019
:10380000809355020C94E21B0895609184026695A2
:1038100070E04BE050E082E191E00E949A30892B09
:1038200019F481E0809359020E94EE249093500293
:1038300080934F0208959091840290FF35C091705B
:10384000811102C0926006C0853210F0986402C0F7
:10385000880F982B90938402662351F06091840224
:103860007091850280918602909187020E948D1747
:1038700060918402669570E04BE050E082E191E057
:103880000E949A30892B19F01092590202C00E94AE
:10389000051C81E08093520240918702609186026C
:1038A000809185020C94D3190895682F9091840219
:1038B000969581E0890F853208F081E00C941B1CFD
:1038C00081E00C94551C682F9091840296958FEF9F
:1038D000890F09F484E20C941B1C81E00C94631C96
:1038E00061E00C941B1CE4E8F2E08081816080833D
:1038F00086950C94701C8091840280FD0C94CA1BE8
:103900000C94731C60E00C941B1C80915702811175
:103910002EC00E94F50E811104C00E949C0F0E94CF
:10392000A9170E948917609384027093850280937F
:103930008602909387026E7F61F40E94A9170E940D
:103940008917609384027093850280938602909316
:1039500087020E947617109259028091840280FF9C
:1039600003C086950E94821C81E0809357020895CF
:10397000E4E8F2E080818160808386950C94821C6B
:10398000109256028091550281110E94B81C0C942D
:10399000051C0F931F93CF93DF93809159028823C7
:1039A00009F485C080915802E0918402E695E81BF5
:1039B000E0935102823049F4F0E0E553FC4FE4918A
:1039C000CE2FD0E008E618E149C0863049F4F0E097
:1039D000E853FC4FE491CE2FD0E00CE918E13EC053
:1039E000893051F4E695F0E0EB53FC4FE491CE2F93
:1039F000D0E006ED19E132C08F3051F4E695F0E0E9
:103A0000EE53FC4FE491CE2FD0E001E11AE126C045
:103A1000853149F4F0E0E154FC4FE491CE2FD0E041
:103A200006E81AE11BC0883181F0833239F4EDEBEE
:103A3000F3E0C591D4910CEA18E110C0843251F43E
:103A4000C4EFD1E00BE81BE109C0C8E2D0E008EF09
:103A50001AE104C0C0EDD7E004E617E180915202FC
:103A6000882361F0109252020E94EE24909350023B
:103A700080934F0210925402109253020E94EE243F
:103A8000E0914F02F09150028E1B9F0B8F3F9F479A
:103A900070F4EC0FFD1FF0935002E0934F028FE49F
:103AA00092E0F801DF91CF911F910F910994DF917E
:103AB000CF911F910F910895882311F0FA0101C051
:103AC000FB010994CF93DF93C82FD62F0E94B8171C
:103AD0008C1740F00E94B8178D1720F4DF91CF911A
:103AE0000C94601C8C2FDF91CF910C94701C1F9351
:103AF000CF93DF93FB011281112309F4BCC0EC01C9
:103B00000E943D0E8272CC3CFCE5DF0709F497C0B1
:103B100008F043C0C63CECE5DE0709F47CC0D8F4ED
:103B2000C33C9CE5D90709F46AC038F4C23CDC45C3
:103B300009F0A4C00E947B1CA0C0C43C9CE5D9072E
:103B400009F462C0C53CDC4509F098C044E959E17C
:103B500067E879E15DC0C93CFCE5DF0709F465C0B1
:103B600070F4C73CECE5DE0709F45AC0C83CDC45FC
:103B700009F084C043EA59E162EB79E149C0CA3CEB
:103B80009CE5D90709F456C0CB3CDC4509F076C06A
:103B90004BEE57E164ED77E13BC0C13DFCE5DF074B
:103BA00009F45AC098F4CE3C9CE5D90709F44EC0FC
:103BB00008F44AC0CF3CFCE5DF0709F44AC0C03D29
:103BC000DC4509F05BC06EE089E04EC0C43D9CE579
:103BD000D90709F447C050F4C23DFCE5DF07F9F10D
:103BE000C33DDC4509F04AC088E142C0C53D9CE5C3
:103BF000D907E9F1CD35DD4509F43FC03FC04DE6B9
:103C00005CE160E67CE104C040E65CE16DE67CE1FD
:103C10000E945C1D32C047E859E164E979E1F8CFC0
:103C200042EB59E163EA79E1F3CF40ED59E161EC10
:103C300079E1EECF41EC59E160ED79E1E9CF44ED76
:103C400057E16BEE77E1E4CF81E012C065E082E0FE
:103C50000BC068E086E008C064E18FE005C067E162
:103C600085E102C062E289E10E94621D06C083E232
:103C70000E94701C02C011E001C010E0812FDF9192
:103C8000CF911F910895539A2BB1277F3BB1386094
:103C90004FB7F894FC01CB01880F991F680F791F6B
:103CA0006E0F7F1FE617F70789F0819198E03BB907
:103CB000000000C087FF2BB9880F000000C000C0C3
:103CC00000C02BB900C09A9591F7ECCF4FBF8FE59C
:103CD00094E00197F1F700C00000089583E290E0BE
:103CE0000E94B430813281F484E290E00E94B430CA
:103CF000893051F485E290E00E94B43091E0863240
:103D000009F090E0892F01C080E081700895CF9381
:103D1000C82F811102C06FEF01C061E283E290E021
:103D20000E94C830C11102C06FEF01C069E084E297
:103D300090E00E94C830C11102C06FEF01C066E27E
:103D400085E290E0CF910C94C830089586E290E02F
:103D50000E94B430682F70E080E090E0089586E221
:103D600090E00C94C83080E00E94871E60E070E014
:103D7000CB010E94AF1E0E9456200E94352181E097
:103D80000C94871E0E94A51E0E946E1E811102C007
:103D90000C94B31E0895CF93FB01C281CC23E9F0AC
:103DA0009C0122513F452031310520F482510E946F
:103DB00045210CC08031FFE59F0751F481E00E944E
:103DC000180A43E062E081E00E94F003C0E018C0FE
:103DD00081319F45A9F482E0F2CF8031EFE59E0763
:103DE00011F481E004C081319F4549F482E00E94D2
:103DF000230A43E062E081E00E94F00301C0C1E0D9
:103E00008C2FCF9108952FEFFC0120830895CF933D
:103E1000DF93EC018881813889F028F48038A1F49F
:103E20000E94091810C0823861F0833869F40E943A
:103E3000031889830E9406188A8306C00E94B81757
:103E400002C00E94EE178983DF91CF910895CF932E
:103E5000DF93EC0188818138B1F058F4803851F556
:103E6000D9810E940618C82F0E9403184D2F6C2F6D
:103E70001DC08238B1F08338E9F40E940918482F38
:103E80006A81898113C089810E94821C8981811184
:103E900004C0DF91CF910C94E21BDF91CF910C9481
:103EA000B81C8981DF91CF910C940018DF91CF91DC
:103EB0000C94D319DF91CF910895EF92FF920F9355
:103EC0001F93CF93DF93EC01062F0196E8814E2FCD
:103ED00050E0FA013197E331F10508F09AC0E0595A
:103EE000FF4F0C945C30198289E056C08981823082
:103EF00039F0833061F0813029F50E94FA2402C044
:103F00000E94A61E9A838B837C836D8384C07E016E
:103F100010E0812F0E94C012F701928383831F5FFC
:103F2000F2E0EF0EF11C1430A1F775C089818230E8
:103F300049F46A817B818C819D810E9462300E945C
:103F4000AF1E69C0602FCE010E94031F64C04B8169
:103F50006A8189810E9428209C838D835CC02C818A
:103F60003D813227232732274B816A8189810E9434
:103F7000412051C00E9456204EC00E94271F4BC0B6
:103F80000E94071F48C00E949F1745C00E94E8205A
:103F900024C00E94EA2099838A833DC06B8170E02F
:103FA00089819A81AE014C5F5F4F982789279827B6
:103FB0000E94ED2030C06B8170E089819A81AE0152
:103FC0004C5F5F4F9827892798270E94122123C0B2
:103FD0000E94352120C00E94152089831CC06B815E
:103FE00070E089819A81AE014C5F5F4F98278927E5
:103FF00098270E9495200FC06B8170E089819A817B
:10400000AE014C5F5F4F9827892798270E94B920FF
:1040100002C08FEF8883602FCE01DF91CF911F9177
:104020000F91FF90EF900C94E42584E0089550E008
:10403000440F551F28E1629F400D511D11249A0124
:1040400060E6869F200D311D1124C90187960895D1
:104050000F931F93CF93DF930E9417208C010E9430
:10406000B430C82FD0E0DC2FCC27C80101960E94C5
:10407000B4309E01282BC901DF91CF911F910F9180
:1040800008950F931F93CF93DF93122F032F0E9456
:104090001720EC01602F0E94C830612FCE010196DD
:1040A000DF91CF911F910F910C94C830AF92BF92C6
:1040B000CF92DF92EF92FF920F931F93CF93DF93F4
:1040C000A12CE12CF12CB12C00E010E0C0E0D0E0FC
:1040D0006701C00ED11EFE01EE0FFF1FEC0DFD1D8E
:1040E000E357FE4F259134914C2F6B2D8A2D0E9462
:1040F00041202196CC30D10571F7085E1F4FB39453
:1041000084E0B812E3CF80E6E80EF11CA39484E0CB
:10411000A812D9CFDF91CF911F910F91FF90EF900F
:10412000DF90CF90BF90AF900895EF92FF920F93E2
:104130001F93CF93DF93EA017A01E60EF71E8C01FD
:10414000C8018796CE15DF0569F0003821E0120717
:1041500020F40E94B430888301C0188221960F5F3A
:104160001F4FEECFDF91CF911F910F91FF90EF90F6
:104170000895EF92FF920F931F93CF93DF93EA017D
:104180007A01E60EF71E8C01C8018796CE15DF0571
:1041900059F0003821E0120718F468810E94C830F5
:1041A00021960F5F1F4FF0CFDF91CF911F910F919D
:1041B000FF90EF900895462F843038F4743028F43F
:1041C0006C3018F4672F0C94282080E090E008955C
:1041D00080E1089589E592E00895EF92FF920F93B0
:1041E0001F93CF93DF93EA017A01E60EF71E8C014D
:1041F000C80189559E4FCE15DF0569F0093522E0CB
:10420000120720F40E94B430888301C018822196DE
:104210000F5F1F4FEDCFDF91CF911F910F91FF9057
:10422000EF900895EF92FF920F931F93CF93DF9338
:10423000EA017A01E60EF71E8C01C80189559E4FEE
:10424000CE15DF0559F0093522E0120718F4688110
:104250000E94C83021960F5F1F4FEFCFDF91CF91A3
:104260001F910F91FF90EF900895CF93DF93C7EACE
:10427000D1E060E0CE010E94C8302196C11584E0F3
:10428000D807B9F7DF91CF910895DF92EF92FF92AF
:104290000F931F93CF93DF9300D000D0CDB7DEB73D
:1042A000F82E8FE08F15E8F18FEF93E00E94B43085
:1042B000811137C007EA11E0FF2069F0011584E0A1
:1042C000180779F1C8010E94B430811101C0FA9435
:1042D0000F5F1F4FF1CF19821A821B821C82DD24CF
:1042E000D39478018FEFE81AF80AC8010E94B4301D
:1042F00089831A828823A9F09FEF980F933058F48E
:104300008A83D9820E5F1F4FC7010E94B4308B830E
:10431000882339F07801CE0101960E94400587017B
:10432000E0CF0F900F900F900F90DF91CF911F91E2
:104330000F91FF90EF90DF9008950F931F93CF930D
:10434000DF93C42FD22FFC0182818823C9F04093D0
:104350005C020E94EE2490935B0280935A0280E2FA
:104360008C0F883008F057C0C77081E001C0880FFB
:10437000CA95EAF7DF91CF911F910F910C944607F0
:1043800080915C02481330C080915A0290915B0288
:104390000E940625883C910538F510E21D0FCD17C7
:1043A000B9F080E28C0F883040F4C77081E001C022
:1043B000880FCA95EAF70E944D07183028F581E06A
:1043C0009D2F977001C0880F9A95EAF70E944607C3
:1043D000802F0E943D071830F0F4D77081E001C0B3
:1043E000880FDA95EAF70AC080E28C0F883098F4DB
:1043F000C77081E001C0880FCA95EAF7DF91CF91BD
:104400001F910F910C944D07802FDF91CF911F9139
:104410000F910C943D07DF91CF911F910F9108955B
:104420000F939C01CB01233F4CE5340731F188F415
:10443000283DFCE53F07D9F0293D4CE5340779F1EB
:10444000273D3C45A9F506E221EE41EE67ED7CE50E
:104450002BC0253FFCE53F07E1F0A8F0263F3C4597
:1044600039F507E225EE46EE66EF7CE51DC007E272
:1044700025EE45EE68ED7CE517C006E221EE40EE44
:1044800063EF7CE511C007E225EE44EE64EF7CE5C6
:104490000BC006E221EE42EE65EF7CE505C008E2C6
:1044A00021E045EE69ED7CE50E949D2180E008C099
:1044B000FC018281882319F010925C0201C081E026
:1044C0000F910895CF93DF93EC01FB018281882344
:1044D00009F41FC1C230FCE5DF0708F41BC1C63177
:1044E0009CE5D90738F09E012A5F3C45293031050B
:1044F00008F010C10E94080F90937302809372021B
:10450000C031ECE5DE0709F4C3C008F041C0C83093
:104510008CE5D80709F49AC0F0F4C430ECE5DE0766
:1045200009F487C068F4C2308CE5D80709F477C075
:10453000C330DC4509F0E3C080917202826076C02E
:10454000C630ECE5DE0709F46EC008F07BC0809150
:10455000720288606BC0CC308CE5D80709F485C046
:1045600068F4CA30ECE5DE0709F474C008F079C0DD
:104570000E94990980917202806858C0CE308CE503
:10458000D80709F476C008F07FC0809172028BC012
:10459000CB3FECE5DE0709F44FC018F5C3318CE5DD
:1045A000D80709F47DC078F4C131ECE5DE0709F4E1
:1045B00073C0C231DC4509F0A2C00E949909809104
:1045C00072028F7733C0C5318CE5D80709F472C009
:1045D00008F486C0CA3FDC4509F091C0809173029F
:1045E0003EC0CF3FFCE5DF0709F45FC058F4CD3F84
:1045F0009CE5D90709F444C008F43FC080917302D8
:1046000082602DC0C130FDE5DF0709F475C008F4F4
:104610005DC0C230DD4509F072C080E06EC080919F
:104620007202816003C08091720280618093720285
:1046300066C08091720211C0809173028260809383
:1046400073025DC0809172028062F0CF809172022D
:104650008064ECCF8091720288608460E7CF8160D3
:10466000EECF809172028E7FE1CF809172028D7FBA
:10467000DDCF80917202877FD9CF8091730218C0FD
:10468000809173028D7FDBCF809172028F7ECECFBF
:10469000809172028F7DCACF809172028F7BC6CFCC
:1046A00080917202877F8B7FC1CF809173028D7F53
:1046B0008E7FC5CF8091720282FB222720F991E084
:1046C000922790FB82F990FB83F9B0CF809173021F
:1046D000982F909591708E7F892B90FB81F9AFCFA9
:1046E0000E9499098091720287FB222720F991E0AC
:1046F000922790FB87F99ACF81E00E949E0F8091CC
:104700007202909173020E94190F0E94990980E031
:1047100001C081E0DF91CF910895CF93DF9386317F
:104720009C4541F5EB010E943D0E982F8A81209116
:10473000000130910101882379F09A7A81E009F42F
:1047400080E080935D02911102C069E201C065E3DF
:10475000C9010E9456240AC080915D02811102C0E5
:1047600069E201C065E3C9010E9458240E94820EDB
:1047700080E001C081E0DF91CF91089590936302C2
:10478000809362020895E0916202F0916302309793
:1047900021F00190F081E02D099480E00895E091EE
:1047A0006202F0916302309721F00280F381E02DE4
:1047B00009940895E0916202F0916302309739F014
:1047C00022E0DC012C930480F581E02D099408950A
:1047D00020916002309161022817390771F090939F
:1047E000610280936002E0916202F091630230976F
:1047F00021F00680F781E02D0994089520915E0252
:1048000030915F022817390771F090935F0280930F
:104810005E02E0916202F0916302309721F0008421
:10482000F185E02D09940895FC01329697E080E02F
:10483000915029F021912223D9F38F5FF9CF089568
:10484000662349F0FC01329608962191621729F0FF
:10485000E817F907D1F780E0089581E008959C01F9
:10486000FC0132969FEF80E04191461789F09F3F0F
:1048700019F4411101C0982F8F5F8630A9F79F3F2F
:1048800039F0F901E90FF11D97FDFA95628308955A
:1048900008959C012A5F3F4FFC014281461301C0ED
:1048A0001282019682179307B9F708950C942F246A
:1048B0000C944924029626E0FC0111922A95E9F70E
:1048C0000895089508950C9462240C946224CF9363
:1048D0000E9465240E94AC130E946324C0E08C2FC8
:1048E0000E94C012892B29F4CF5FC430C1F780E049
:1048F00001C081E0CF9108950C9462240C947C2433
:104900008091C102843059F10E947E2480E00E948F
:10491000BB050E94F41B1092640220E488E190E041
:104920000FB6F894A895809360000FBE20936000A6
:1049300083B7817F846083BF83B7816083BF7894AE
:10494000889583B78E7F83BF0FB6F894A895809122
:104950006000886180936000109260000FBE08952F
:104960000C9462240E9499090E94C3230E94BB05F3
:104970000E94C01C0C94B0241F920F920FB60F928D
:1049800011248F939F93AF93BF9380916402811101
:1049900013C08091B9029091BA02A091BB02B0916C
:1049A000BC024196A11DB11D8093B9029093BA0239
:1049B000A093BB02B093BC02BF91AF919F918F9126
:1049C0000F900FBE0F901F90189582E084BD93E06A
:1049D00095BD9AEF97BD80936E0008952FB7F89418
:1049E0008091B9029091BA02A091BB02B091BC0231
:1049F0002FBF08952FB7F8946091B9027091BA0251
:104A00008091BB029091BC022FBF08959C014FB7CB
:104A1000F8948091B9029091BA02A091BB02B09132
:104A2000BC024FBF821B930B089578941F920F9284
:104A30000FB60F9211248F939F93AF93BF938091E2
:104A4000B9029091BA02A091BB02B091BC0201964A
:104A5000A11DB11D8093B9029093BA02A093BB022D
:104A6000B093BC02BF91AF919F918F910F900FBEF9
:104A70000F901F90189581E08093E00080E2809372
:104A8000D8001092C9008FE19EE40197F1F700C0B1
:104A9000000087E090EBDC018093CA029093CB0288
:104AA000A093CC02B093CD029CE088E10FB6F894BD
:104AB000A895809360000FBE90936000FFCF909305
:104AC000CF018093CE010895809170020895909156
:104AD000C102943029F58093650270936702609358
:104AE00066029093E9008FEF9091E800815095FD68
:104AF00006C095ED9A95F1F700008111F5CF8091F0
:104B0000E80085FF0DC040E050E063E070E085E61E
:104B100092E00E94E0278091E8008E778093E80081
:104B20000895BC0184E00C946725BC0183E00C94DB
:104B3000672524E02093E9002FEF3091E800215011
:104B400035FD06C035ED3A95F1F700002111F5CF9E
:104B50002091E80025FF0BC040E050E066E070E0E7
:104B60000E94E0278091E8008E778093E800089506
:104B7000CF93DF9321E02093E9002FEF3091E800FD
:104B8000215035FD06C035ED3A95F1F700002111B1
:104B9000F5CF2091E80025FF14C0EC0140E050E083
:104BA00068E070E00E94E0278091E8008E778093B3
:104BB000E80088E0FE01A8E6B2E001900D928A9537
:104BC000E1F7DF91CF910895CF93603219F52091ED
:104BD000C1022430F9F4C091E900CF703091EC00AB
:104BE000232F217030FD20E8C22B22E02093E90022
:104BF0002091E80020FF0BC040E050E060E270E050
:104C00000E94E0278091E8008E778093E800CF70C3
:104C1000C093E900CF9108958091C002811109C02D
:104C20000E94BC290E94192A8091E200846080932E
:104C3000E20008951092C00208950895089508951D
:104C400042E061EC81E00E94352942E261EC84E0BF
:104C50000E94352942E261EC82E00E94352942E25D
:104C600060EC83E00C9435298091C302833009F411
:104C700062C030F4813071F0823009F49BC0089535
:104C80008A3009F487C08B3009F46DC0893009F08F
:104C9000A9C020C08091C202813A09F0A3C08091CE
:104CA000E800877F8093E8008091C6029091C70258
:104CB000892B21F468E088E692E003C060E080E0A0
:104CC00090E070E00E9476288091E8008B778093D6
:104CD000E80008958091C202813209F083C080917A
:104CE000C6029091C702009719F0029709F07AC0A6
:104CF0008091E800877F8093E8008091E80082FD42
:104D000005C08091C1028111F8CF6CC02091F300E1
:104D10008091F20090E0922B029729F48091F100AB
:104D20008B7F813021F48091F1008093700280911B
:104D3000E8008B7753C08091C202813A09F052C0DB
:104D40008091C6029091C702892B09F04BC08091D7
:104D5000E800877F8093E8008091E80080FFFCCF27
:104D60008091270136C08091C2028132D9F58091AD
:104D7000C6029091C702892BA9F58091E800877F30
:104D80008093E8000E946A298091C40280932701E1
:104D90000C9499098091C202813221F58091E8003A
:104DA000877F8093E8000E946A298091C5028093E2
:104DB000710208958091C202813AA1F48091E800C5
:104DC000877F8093E8008091E80080FFFCCF80918E
:104DD00071028093F1008091E8008E778093E80063
:104DE0000C946A29089584B7877F84BF0FB6F8941E
:104DF000A8958091600088618093600010926000A7
:104E00000FBE90E080E80FB6F89480936100909315
:104E100061000FBE0C94CE0F0E94BC290E94192A7B
:104E2000E2EEF0E080818460808378940E94AE2C72
:104E30000E94DC0F8DE191E00C94BE23CF93DF93B1
:104E4000CDB7DEB7A0970FB6F894DEBF0FBECDBFCB
:104E50008091C1028530A9F48091C102853079F436
:104E60000E9480248091BF028823B1F30E946724AE
:104E7000882391F30E94CA270E949909EDCF0E94CE
:104E8000B2240E94E60F8091C102843011F583E0C4
:104E90008093E9008091E80082FF1BC08091E800C8
:104EA00085FF0AC040E050E060E270E0CE0101966C
:104EB0000E942B2891E001C090E08091E8008B7760
:104EC0008093E800992329F060E2CE0101960E94C8
:104ED0005D1FA0960FB6F894DEBF0FBECDBFDF9169
:104EE000CF9108950C947427292F3327233031054F
:104EF000C9F060F42130310581F02230310509F02C
:104F000041C08BE590E026EF34E040C0213231050E
:104F1000E1F02232310531F135C082E190E021E546
:104F200035E034C099278130910549F028F0029787
:104F300049F5E4EDF4E005C0E2EFF4E002C0E6EE8E
:104F4000F4E0849190E09F0121C063307105D0F4BA
:104F5000660F771FFB01E853FE4F2081318189E006
:104F600090E014C06330710568F4FB01EE0FFF1F81
:104F7000EE53FE4F20813181FB01E154FE4F8081D1
:104F800090E004C080E090E020E030E0FA0131835E
:104F90002083089580E189BD82E189BD09B400FEC6
:104FA000FDCF8091D8008F7D8093D8008091E00064
:104FB00082608093E0008091E00081FDFCCF089545
:104FC000CF92DF92EF92FF920F931F93CF93DF93D5
:104FD000EC018B017A010E948929811133C0E1140F
:104FE000F10439F0F70180819181081B190BC80F7A
:104FF000D91FC12CD12C0115110519F18091E800A0
:1050000085FD16C08091E8008E778093E800E1145A
:10501000F10449F0F70180819181C80ED91ED18237
:10502000C08285E00FC00E948929882321F30AC02D
:1050300089918093F10001501109FFEFCF1ADF0A27
:10504000DACF80E0DF91CF911F910F91FF90EF9029
:10505000DF90CF900895CF92DF92EF92FF920F935F
:105060001F93CF93DF93EC018B017A010E94892972
:10507000811133C0E114F10439F0F701808191818D
:10508000081B190BC80FD91FC12CD12C01151105F4
:1050900019F18091E80085FD16C08091E8008B77BA
:1050A0008093E800E114F10449F0F70180819181D7
:1050B000C80ED91ED182C08285E00FC00E94892906
:1050C000882321F30AC08091F100899301501109CE
:1050D000FFEFCF1ADF0ADACF80E0DF91CF911F9187
:1050E0000F91FF90EF90DF90CF9008952091C8022C
:1050F0003091C9022617370748F06115710539F458
:105100002091E8002E772093E80001C0B901FC014E
:1051100020E06115710579F18091C1028823F1F1D8
:105120008530F1F18091E80083FD3CC08091E8007A
:1051300082FD2EC08091E80080FFEBCF2091F3002C
:105140008091F20090E0922B6115710551F088304A
:10515000910538F421912093F10061507109019675
:10516000F3CF21E0089709F020E08091E8008E77E6
:105170008093E800CECF2111CFCF0AC08091C10229
:10518000882361F0853061F08091E80083FD0AC0DA
:105190008091E80082FFF2CF80E0089582E00895D8
:1051A00083E0089581E008952091C8023091C902FA
:1051B0002617370748F06115710539F42091E8008A
:1051C0002E772093E80001C0B901FC0120E06115B1
:1051D000710591F18091C102882309F440C08530A6
:1051E00009F43FC08091E80083FD3DC08091E80054
:1051F00082FD2FC08091E80080FFE9CF2091F3006D
:105200008091F20090E0922B6115710559F0883081
:10521000910540F424912093F10031966150710979
:105220000196F2CF21E0089709F020E08091E80094
:105230008E778093E800CBCF2111CCCF0AC080912C
:10524000C102882361F0853061F08091E80083FD20
:105250000AC08091E80082FFF2CF80E0089582E0EA
:10526000089583E0089581E00895982F973068F5B8
:105270009093E900981739F07091EC002091ED00BF
:105280005091F00003C0242F762F50E021FD02C082
:105290009F5FECCF3091EB003E7F3093EB0030917D
:1052A000ED003D7F3093ED003091EB0031603093A5
:1052B000EB007093EC002093ED005093F0002091F0
:1052C000EE0027FDE5CF80E008958F708093E90020
:1052D00081E008958091C20287FF11C08091E800AB
:1052E00082FD05C08091C1028111F8CF11C080916B
:1052F000E8008B770BC08091C102882349F0809130
:10530000E80080FFF8CF8091E8008E778093E80076
:1053100008952091E4003091E50095E64091EC007D
:10532000842F817040FF23C08091E80080FD1DC064
:105330008091C102882399F0853099F08091EB002B
:1053400085FD11C04091E4005091E5002417350718
:1053500029F3915011F09A01E1CF84E0089582E0A1
:10536000089583E0089581E0089580E008954091D4
:10537000E80042FFDDCF08950E942A2A0E94322AC7
:10538000E0EEF0E0808181608083E8EDF0E08081F4
:105390008F77808319BCA7EDB0E08C918E7F8C93C2
:1053A00080818F7E80831092C00208950F931F9397
:1053B000CF93DF930E942A2A0E94322AC8EDD0E0C0
:1053C00088818F77888388818068888388818F7DB2
:1053D000888319BC1092C1021092BD021092BF02C4
:1053E0001092BE0200EE10E0F80180818B7F808376
:1053F00088818160888342E060E080E00E943529F6
:10540000E1EEF0E080818E7F8083E2EEF0E080814B
:1054100081608083808188608083F80180818E7FB5
:105420008083888180618883DF91CF911F910F9164
:105430000895E8EDF0E080818F7E8083E7EDF0E075
:1054400080818160808384E082BF81E08093C0029C
:105450000C94D629E8EDF0E080818E7F8083109255
:10546000E20008951092DA001092E10008951F9270
:105470000F920FB60F9211242F933F934F935F9388
:105480006F937F938F939F93AF93BF93EF93FF930C
:105490008091E10082FF0BC08091E20082FF07C093
:1054A0008091E1008B7F8093E1000E94AD2C809180
:1054B000DA0080FF1FC08091D80080FF1BC0809160
:1054C000DA008E7F8093DA008091D90080FF0DC0D2
:1054D00080E189BD82E189BD09B400FEFDCF81E094
:1054E0008093C1020E940C2605C019BC1092C10213
:1054F0000E941A268091E10080FF19C08091E2008D
:1055000080FF15C08091E2008E7F8093E200809141
:10551000E20080618093E2008091D80080628093F5
:10552000D80019BC85E08093C1020E941E2680919C
:10553000E10084FF30C08091E20084FF2CC080E154
:1055400089BD82E189BD09B400FEFDCF8091D800FC
:105550008F7D8093D8008091E1008F7E8093E10061
:105560008091E2008F7E8093E2008091E200816072
:105570008093E2008091BD02882311F084E007C08F
:105580008091E30087FD02C081E001C083E0809349
:10559000C1020E941F268091E10083FF29C08091F3
:1055A000E20083FF25C08091E100877F8093E100C6
:1055B00082E08093C1021092BD028091E1008E7F53
:1055C0008093E1008091E2008E7F8093E2008091E1
:1055D000E20080618093E20042E060E080E00E94AF
:1055E00035298091F00088608093F0000E941D268C
:1055F000FF91EF91BF91AF919F918F917F916F91AB
:105600005F914F913F912F910F900FBE0F901F9080
:1056100018951F920F920FB60F9211242F933F935C
:105620004F935F936F937F938F939F93AF93BF93AA
:10563000CF93DF93EF93FF93C091E900CF708091F8
:10564000EC00D82FD17080FDD0E81092E900809155
:10565000F000877F8093F00078940E944D2B109289
:10566000E9008091F00088608093F000CD2BCF702E
:10567000C093E900FF91EF91DF91CF91BF91AF917E
:105680009F918F917F916F915F914F913F912F915A
:105690000F900FBE0F901F9018951F93CF93DF931D
:1056A000CDB7DEB7AA970FB6F894DEBF0FBECDBF59
:1056B000E2ECF2E08091F100819322E0EA3CF20713
:1056C000C9F70E9434268091E80083FF2EC18091A3
:1056D000C2029091C302492F50E04A30510508F0B0
:1056E00024C1FA01ED57FF4F0C945C30803821F053
:1056F000823809F01AC108C08091BE029091BF02A1
:10570000992389F082600FC08091C6028F70873024
:1057100008F00BC18093E9008091EB0085FB88279E
:1057200080F91092E9009091E800977F9093E8004B
:105730008093F1001092F100D1C0282F2D7F09F045
:10574000F4C0882319F0823061F0EFC08091C40268
:10575000813009F0EAC0933009F080E08093BF0205
:105760002EC08091C40281112AC08091C6028F7020
:105770002FEF280F263008F0D8C08093E900209141
:10578000EB0020FF1CC0933021F48091EB0080627D
:1057900014C09091EB0090619093EB0021E030E019
:1057A000A90102C0440F551F8A95E2F74093EA0011
:1057B0001092EA008091EB0088608093EB001092D9
:1057C000E9008091E800877F8093E8000E946A29C1
:1057D000ACC08111AAC01091C4021F778091E30070
:1057E0008078812B8093E3008091E800877F80930D
:1057F000E8000E946A298091E80080FFFCCF809138
:10580000E30080688093E300111102C082E001C0D0
:1058100083E08093C10289C08058823008F085C03F
:105820008091C4029091C5028C3D53E0950779F5B3
:1058300083E08A838AE289834FB7F894DE01139666
:1058400020E03EE051E2E32FF0E050935700E49176
:1058500020FF03C0E295EF703F5FEF708E2F90E066
:10586000EA3010F0C79601C0C0968D939D932F5FCC
:10587000243149F74FBF8091E800877F8093E8008B
:105880006AE270E0CE0101960E94762816C060910F
:10589000C6027091C702AE014F5F5F4F0E94722730
:1058A000BC01892B09F441C09091E800977F909347
:1058B000E80089819A810E94D4288091E8008B7742
:1058C0008093E80032C0803881F58091E800877FBE
:1058D0008093E8008091BD028093F1008091E80000
:1058E0008E7772CF811121C08091C4029091C50240
:1058F00099270297D4F48091E800877F8093E8008D
:105900008091C4028093BD020E946A298091BD02E9
:10591000811106C08091E30087FD02C081E001C0D3
:1059200084E08093C1020E9420268091E80083FFDA
:105930000AC08091E800877F8093E8008091EB00A7
:1059400080628093EB00AA960FB6F894DEBF0FBE7C
:10595000CDBFDF91CF911F9108950895CF9380918E
:10596000C1028823A1F0C091E900CF709091EC00B2
:10597000892F817090FD80E8C82B1092E9008091FA
:10598000E80083FD0E944D2BCF70C093E900CF91BA
:1059900008955058BB27AA270E94E12C0C948C2E06
:1059A0000E947E2E38F00E94852E20F039F49F3F11
:1059B00019F426F40C94542E0EF4E095E7FB0C94A5
:1059C0004E2EE92F0E949D2E58F3BA1762077307D7
:1059D0008407950720F079F4A6F50C94BF2E0EF4F9
:1059E000E0950B2EBA2FA02D0B01B90190010C01EF
:1059F000CA01A0011124FF27591B99F0593F50F407
:105A0000503E68F11A16F040A22F232F342F44275E
:105A1000585FF3CF469537952795A795F040539556
:105A2000C9F77EF41F16BA0B620B730B840BBAF026
:105A30009150A1F0FF0FBB1F661F771F881FC2F791
:105A40000EC0BA0F621F731F841F48F487957795A5
:105A50006795B795F7959E3F08F0B0CF9395880F5F
:105A600008F09927EE0F9795879508950E944A2D83
:105A70000C948C2E0E94852E58F00E947E2E40F0B1
:105A800029F45F3F29F00C944E2E51110C94C02E36
:105A90000C94542E0E949D2E68F39923B1F3552344
:105AA00091F3951B550BBB27AA2762177307840731
:105AB00038F09F5F5F4F220F331F441FAA1FA9F3C7
:105AC00035D00E2E3AF0E0E832D091505040E695B5
:105AD000001CCAF72BD0FE2F29D0660F771F881F16
